:100000000C9434000C9451000C9451000C94510049
:100010000C9451000C9451000C9451000C9451001C
:100020000C9451000C9451000C9451000C9451000C
:100030000C9451000C9451000C9451000C945100FC
:100040000C9451000C9451000C9451000C945100EC
:100050000C9451000C9451000C9451000C945100DC
:100060000C9451000C94510011241FBECFEFD8E026
:10007000DEBFCDBF11E0A0E0B1E0E0E7F6E002C0F6
:1000800005900D92A831B107D9F721E0A8E1B1E0C0
:1000900001C01D92AC31B207E1F70E9458010C94E7
:1000A00036030C94000087B1816087B9089588B148
:1000B000816088B985E08A95F1F788B18E7F88B92B
:1000C000089580E090E0DC0105C031990AC00196F6
:1000D000A11DB11D80362EEA92072AE0A207B105C4
:1000E000A0F380369E4AAA40B10579F110928000B3
:1000F00082E080938100109285001092840080E05D
:1001000090E0DC0109C0319B0EC020918400309149
:1001100085000196A11DB11D80362EEA92072AE0C6
:10012000A207B10580F380369E4AAA40B10581F04E
:100130008091840090918500A0E0B0E01092810051
:10014000B695A7959795879508958FEF9FEF08959A
:100150008EEF9FEF08959BB19F70282F207F922BE9
:100160009BB99BB19E7F9BB99BB192609BB90000EC
:100170009BB19D7F9BB932E43A95F1F700C02BB15A
:1001800030E1839FC0011124922F9F70892B8BB97E
:100190008BB182608BB900008BB18D7F8BB983EFFF
:1001A00091E00197F1F700C0000008958FEF8AB940
:1001B00085EA9EE00197F1F700C0000082E00E940E
:1001C000AB0088E20E94AB008CE00E94AB0086E0AE
:1001D0000E94AB0081E00E94AB0083EF91E00197A9
:1001E000F1F700C00000089581E00E94AB0083EFAA
:1001F00091E00197F1F700C0000080E80E94AB0099
:100200000895FC0160E070E02CC08BB18F70907F8E
:10021000982B9BB98BB181608BB98BB182608BB904
:1002200000008BB18D7F8BB982E48A95F1F700C015
:100230004BB19C9180E1989F90011124942F9F7065
:10024000292B2BB99BB192609BB900009BB19D7F7C
:100250009BB983EF91E00197F1F700C000006F5F59
:100260007F4FDF01A60FB71F9C919111CECF08954C
:10027000CF93DF9300D0CDB7DEB790E8998390ECB1
:100280009A83E62FF0E0319721E030E02C0F3D1FFC
:10029000E20FF31F9081890F81500E94AB0031E281
:1002A0003A95F1F700000F900F90DF91CF910895EC
:1002B000CF93DF9300D000D0CDB7DEB70E94D60039
:1002C00087EA91E60197F1F700C000000E94530011
:1002D00087B18C6387B98AB184608AB90E9457005C
:1002E0000E9461008F3F2FEF920749F461E081E0A7
:1002F0000E94380180E091E00E940101EFCFBC0133
:1003000080E090E00E94060226E933E44BE05DE3E2
:100310000E946C0220E030E040E05FE30E946C024B
:100320000E94D00170931B0160931A012091180163
:10033000309119012617370711F00E94F40061E08F
:1003400081E00E94380187E091E00E94010161E0B4
:100350008CE00E9438014AE0BE016F5F7F4F8091C0
:100360001A0190911B010E940103CE0101960E9487
:10037000010161E08EE00E94380183E191E00E947A
:10038000010180911A0190911B01909319018093B2
:1003900018018BE49DE10197F1F700C000009ECFAA
:1003A0000E94D7016894B1110C94660208950E94CE
:1003B0004B0288F09F5798F0B92F9927B751B0F0AA
:1003C000E1F0660F771F881F991F1AF0BA95C9F7D9
:1003D00014C0B13091F00E946502B1E008950C9410
:1003E0006502672F782F8827B85F39F0B93FCCF3C3
:1003F000869577956795B395D9F73EF49095809556
:10040000709561957F4F8F4F9F4F0895E89409C075
:1004100097FB3EF490958095709561957F4F8F4F37
:100420009F4F9923A9F0F92F96E9BB279395F6954D
:10043000879577956795B795F111F8CFFAF4BB0FCB
:1004400011F460FF1BC06F5F7F4F8F4F9F4F16C02F
:10045000882311F096E911C0772321F09EE8872FB9
:10046000762F05C0662371F096E8862F70E060E075
:100470002AF09A95660F771F881FDAF7880F9695EE
:10048000879597F9089557FD9058440F551F59F0D7
:100490005F3F71F04795880F97FB991F61F09F3F71
:1004A00079F087950895121613061406551FF2CF9A
:1004B0004695F1DF08C0161617061806991FF1CFEA
:1004C00086957105610508940895E894BB27662711
:1004D0007727CB0197F908950E947F020C94F002D0
:1004E0000E94E20238F00E94E90220F0952311F008
:1004F0000C94D9020C94DF0211240C9466020E9421
:10050000430270F3959FC1F3950F50E0551F629F12
:10051000F001729FBB27F00DB11D639FAA27F00D5C
:10052000B11DAA1F649F6627B00DA11D661F829F83
:100530002227B00DA11D621F739FB00DA11D621F68
:10054000839FA00D611D221F749F3327A00D611D85
:10055000231F849F600D211D822F762F6A2F112467
:100560009F5750409AF0F1F088234AF0EE0FFF1F9A
:10057000BB1F661F771F881F91505040A9F79E3FF1
:10058000510580F00C94D9020C9466025F3FE4F3AD
:10059000983ED4F3869577956795B795F795E79547
:1005A0009F5FC1F7FE2B880F911D9695879597F950
:1005B000089597F99F6780E870E060E008959FEFE5
:1005C00080EC089500240A941616170618060906EA
:1005D000089500240A9412161306140605060895B9
:1005E000092E0394000C11F4882352F0BB0F40F441
:1005F000BF2B11F460FF04C06F5F7F4F8F4F9F4F81
:100600000895BB274A3031F4992322F4BDE2909536
:1006100081959F4F0C940D03BB27FB015527AA27FB
:10062000880F991FAA1FA41710F0A41B839550517F
:10063000B9F7A05DAA3308F0A95DA193009779F7F7
:10064000B111B1931192CB010C942603DC01FC0192
:10065000672F71917723E1F7329704C07C916D93F6
:1006600070836291AE17BF07C8F30895F894FFCF67
:100670004572726F72210044697374616E63652004
:080680003D200020636D000025
:00000001FF
